:0200000057297E
:0E000600213083120313FD00FD0B07280800B4
:06001400000000000800DE
:10001A000F3083120313FC004730FD00FD0B132839
:0A002A00FC0B132800000000080082
:1000340083120313E41B2028861121288615641BD0
:100044002528061126280615E41A2A2886102B28A6
:100054008614641A2F280610302806143A183428F7
:1000640006163528061286160A208612E4193C283C
:1000740086113D2886156419412806114228061563
:10008400E418462886104728861464184B2806105E
:100094004C2806143A1850280616512806128616BB
:1000A4000A2086123A1C58280D20592803200800DB
:0E00B400831203133C088A003B0882000800F8
:1000C200831203133A106308E4001A203A1408005A
:1000D2008316031386120612061086100611861165
:1000E20083128612061286110611861006100D2042
:1000F2000D200D208614061486160A2086120D2065
:1001020086160A2086120D2086160A2086120D20D7
:10011200061086160A2086120D2086160A208612DE
:100122008610861586160A2086120D208611061460
:1001320086160A208612061086160A2086120D20BE
:1001420086160A208612061486160A2086120D20AA
:10015200061086160A2086128615061586140614BF
:0C01620086160A2086120D203A140800B0
:10016E00C928803083120313DF00DC28C030DF0083
:10017E00DC289430DF00DC28D430DF00DC2880302F
:10018E00DF00DC28831203135F08013A0319B82835
:10019E005F08023A0319BD285F08033A0319C02805
:1001AE005F08043A0319C328C6286003F0005F08ED
:1001BE00F0077008DF007008E4001A203A10E20120
:1001CE0062086107840000080319F52862086107B8
:1001DE0084000008E3006120E20AE7283A140800D0
:1001EE0083120313E00160085F07840000080319FF
:1001FE00082960085F0784000008E3006120E00A18
:04020E00FA280800C2
:100212007730831603138F00FF30850003300317F6
:0A02220088008901860169200800A8
:10022C002829803083120313DF003B29C030DF0004
:10023C003B299430DF003B29D430DF003B29803050
:10024C00DF003B29831203135F08013A03191729B6
:10025C005F08023A03191C295F08033A03191F2986
:10026C005F08043A0319222925296003F0005F086E
:10027C00F0077008DF003A147008E4001A203A10F6
:0A028C006108E4001A203A1408008B
:100296005A208A110A128000840ABB0A0319BC0A72
:0802A600F003031D4B290800C1
:1002AE00203083120313A0002030A1002030A200C2
:1002BE002030A3002030A4002030A5002030A6005E
:1002CE002030A7002030A8002030A900AA014B3012
:1002DE00AB00E130AC006C30AD006D30AE00E13003
:1002EE00AF006E30B000B1012030B200B3014B3020
:1002FE00B4006130B5006E30B6006430B700F33034
:10030E00B800B901BF01C001C101C2010E30C30066
:10031E000E30C4000E30C500C601C7010E30C80035
:10032E000E30C9000E30CA00CB01CC01CD01CE017A
:10033E00CF01D0010430D1000A30D2001130D300E9
:10034E000A30D4000430D500D601D7010A30D800C7
:10035E000A30D9000A30DA000A30DB000A30DC003D
:10036E000A30DD00DE01BD0109212730FC00F53029
:10037E00FD00FD0BC029FC0BC0290C30E4001A2037
:10038E000C30E4001A202C30E4001A200130E40076
:10039E001A200130DF000130E0003430E100B720D8
:1003AE003230DF00F7202B30DF00F7204030E40042
:1003BE001A20BE0108303E020318ED293E083F3ECA
:1003CE0084000008E3006120BE0AE129BE01083066
:1003DE003E020318FA293E08473E84000008E30057
:1003EE006120BE0AEE29BE0108303E020318072A1C
:1003FE003E084F3E84000008E3006120BE0AFB2940
:10040E00BE0108303E020318142A3E08573E8400EF
:10041E000008E3006120BE0A082A0230DF00013026
:10042E00E00030303D07E1001621BE013D083E02DE
:10043E000318262A2030E3006120BE0A1D2A3D1C27
:10044E002C2A0130E30061202E2AE30161202030A6
:10045E00E3006120BD0A3D080A3A031D3E2ABD0194
:10046E000230DF000230E0002030E100B7200B3018
:10047E00FB002630FC005D30FD00FD0B442AFC0B1A
:0E048E00442AFB0B442A00000000142A4D2AC9
:04400E00F22F000786
:00000001FF
