:02000000B82C1A
:10000800FF00030E8301A8000A08A9008A017008EE
:10001800A100A20A2208FA3A031D1428A201A40A80
:1000280024083C3A031D1A28A401A30A23083C3AD1
:10003800031D2028A301A50A2508183A031D252811
:10004800A50182308100A0308B002108F00029082A
:0C0058008A00280E8300FF0E7F0E0900B6
:10006400710DF80DF90D7408F8027508031C750F6D
:10007400F902F00DF10D0F30FC00710DF80DF90DC2
:100084007408701C4B28F8027508031C750FF902DC
:100094005028F80775080318750FF907F00DF10DCE
:1000A400FC0B3F2870185C287408F80775080318BF
:0800B400750FF90700000800B8
:1000BC00831203137008F100F0010830FC00710882
:1000CC00F40C03186D28FC0B6628F10100340310A6
:1000DC007228F40C0318F107F10CF00CFC0B6F28D0
:0200EC0008000A
:1000EE00FB09FA09F909F809F80A0319F90A0319BB
:0800FE00FA0A0319FB0A0800CD
:1001060083120313C9010F304805C900F0304805B2
:10011600F2007208F000F00CF013F00CF013F00C83
:10012600F013F00CF01347189A2808109B280814AF
:10013600F03087050F30F005700887048814063004
:10014600FC003030FD00FD0BA628FC0BA6280000A5
:1001560088100630FC003030FD00FD0BB028FC0B8B
:10016600B0280000F03087050F304905F000700810
:10017600870488140630FC003030FD00FD0BC128D2
:10018600FC0BC128000088100630FC003030FD0052
:0C019600FD0BCB28FC0BCB280000080060
:1001A200F0308312031387050F304805F000700802
:1001B20087044718DE280810DF2808148814063040
:1001C200FC003030FD00FD0BE428FC0BE4280000AD
:1001D20088100630FC003030FD00FD0BEE28FC0BD1
:0601E200EE2800000800F9
:1001E8007408F8027508031C750FF9027608031CD9
:1001F800760FFA027708031C770FFB02F30D07301E
:10020800FC00730DF80DF90DFA0DFB0D7408731C45
:100218001B29F8027508031C750FF9027608031CE0
:10022800760FFA027708031C770FFB022829F807D4
:1002380075080318750FF90776080318760FFA077B
:1002480077080318770FFB07F30DFC0B0529720DD0
:10025800F80DF90DFA0DFB0D7408731C4129F8020D
:100268007508031C750FF9027608031C760FFA024D
:100278007708031C770FFB024E29F8077508031847
:10028800750FF90776080318760FFA077708031829
:10029800770FFB07F20D0730FC00720DF80DF90D12
:1002A800FA0DFB0D7408721C6729F8027508031C07
:1002B800750FF9027608031C760FFA027708031CFB
:1002C800770FFB027429F80775080318750FF907EB
:1002D80076080318760FFA0777080318770FFB07D5
:1002E800F20DFC0B5129710DF80DF90DFA0DFB0DEE
:1002F8007408721C8D29F8027508031C750FF90221
:100308007608031C760FFA027708031C770FFB02A6
:100318009A29F80775080318750FF907760803185E
:10032800760FFA0777080318770FFB07F10D0730E8
:10033800FC00710DF80DF90DFA0DFB0D7408711C18
:10034800B329F8027508031C750FF9027608031C17
:10035800760FFA027708031C770FFB02C029F8070B
:1003680075080318750FF90776080318760FFA074A
:1003780077080318770FFB07F10DFC0B9D29700D0B
:10038800F80DF90DFA0DFB0D7408711CD929F80246
:100398007508031C750FF9027608031C760FFA021C
:1003A8007708031C770FFB02E629F807750803187E
:1003B800750FF90776080318760FFA0777080318F8
:1003C800770FFB07F00D0730FC00700DF80DF90DE5
:1003D800FA0DFB0D7408701CFF29F8027508031C40
:1003E800750FF9027608031C760FFA027708031CCA
:1003F800770FFB020C2AF80775080318750FF90721
:1004080076080318760FFA0777080318770FFB07A3
:10041800F00DFC0BE92970181F2A7408F8077508F5
:100428000318750FF90776080318760FFA07770887
:080438000318770FFB07080011
:10044000831203137408003A031D2F2A7508003A1B
:10045000031D2F2AFF30F0007F30F100882A83121D
:100460000313FD01F901F801710870040319003448
:1004700071087506FA00FA1BFD09FB01F51F452AF4
:10048000F409F509F40A0319F50AF11F4C2AF009D9
:10049000F109F00A0319F10A71087504FA00FA1B50
:1004A000612A32207B18742AFD1F0034F009F109FB
:1004B000F00A0319F10AF809F909F80A0319F90A07
:1004C0000034F51F702AF11B6C2A7108F9007008BE
:1004D000F800F101F001542AF101F001F00A0034B2
:1004E000F109F009FB0A512AF80A0319F90A7408FC
:1004F0007802031D542A75087902031D542AF90154
:10050000F801F00A0319F10AF11F542A0000FF3420
:020510000800E1
:1005120083120313F8010830FC00700DF80D740803
:10052200F8020318962AF8070310F00DFC0B8E2A26
:020532000800BF
:0E0534008312031327088A002608820008009D
:10054200831203137408003A031DBC2A7508003A8B
:10055200031DBC2A7608003A031DBC2A7708003A1C
:10056200031DBC2AFF30F000FF30F100FF30F20023
:100572007F30F300552B83120313FC01F71BFC0A97
:10058200FD01FB01FA01F901F8017308720471041B
:1005920070040319502B73087706A000A01BFD09F5
:1005A200F71FDE2AF409F509F609F709F40A031917
:1005B200F50A0319F60A0319F70AF31FEB2AF009E1
:1005C200F109F209F309F00A0319F10A0319F20A0F
:1005D2000319F30A73087704A000A01B0C2BF42064
:1005E200FC1B292BFD1F502BF009F109F209F3091D
:1005F200F00A0319F10A0319F20A0319F30AF809B6
:10060200F909FA09FB09F80A0319F90A0319FA0A9E
:100612000319FB0A502BF71F232BF31B1D2B730807
:10062200FB007208FA007108F9007008F800F30183
:10063200F201F101F001F32AF301F201F101F001FB
:10064200F00A0034F309F209F109F009FC17F02A63
:10065200F80A0319F90A0319FA0A0319FB0A7408BA
:100662007802031DF32A75087902031DF32A76081E
:100672007A02031DF32A77087B02031DF32AFB018A
:10068200FA01F901F801F00A0319F10A0319F20A51
:100692000319F30AF31FF32AA0012016FF34A00165
:0A06A2007C1C542B7720003E08005A
:1006AC0083120313FB01FA01F9018030F800F10CFD
:1006BC00F00C031C6A2B7408F90775080318750FE6
:1006CC00FA070318FB0A0310F01F722B7408FA07C1
:1006DC0075080318750FFB07FB0CFA0CF90CF80CDA
:1006EC00031C5D2B7B08F3007A08F2007908F100FB
:0606FC007808F000080080
:10070200203083120313BC00BD01BE01BF01C00132
:10071200C101C201C301C401C501C6013808BC0040
:100722000A30F4000030F5003608F0003708F10016
:1007320020227808F0007908F1007008C0000A3021
:10074200F4000030F5003608F0003708F1002022EE
:100752007008B6007108B7000A30F4000030F500E6
:1007620020227808F0007908F1007008BF000A30F2
:10077200F4000030F5003608F0003708F1002022BE
:100782007008B6007108B7000A30F4000030F500B6
:1007920020227808F0007908F1007008BE000A30C3
:1007A200F4000030F5003608F0003708F10020228E
:1007B2007008BD000A30F4003908F0008922700880
:1007C200C1000A30F4005E2070083902C2000A300B
:1007D200F4003A08F00089227008C3000A30F400DD
:1007E2005E2070083A02C4000A30F4003B08F000B0
:1007F20089227008C5000A30F4005E2070083B02AE
:10080200C600C7018030C80083200130C7003030E5
:100812004107C80083200130C70030304207C800BA
:1008220083200130C7003A30C80083200130C7005E
:1008320030304307C80083200130C70030304407FE
:10084200C80083200130C7003A30C800832001303D
:10085200C70030304507C80083200130C700303060
:100862004607C8008320C701C030C800832001307A
:10087200C7003C08C80083200130C70030303D0764
:10088200C80083200130C70030303E07C8008320F3
:100892000130C70030303F07C80083200130C70055
:1008A2002E30C80083200130C70030304007C80016
:0408B2008320080097
:1008B6009A228A110A128000840AA60A0319A70A34
:0808C600F003031D5B2C080088
:1008CE007030831603138F00FF30850003178801E5
:1008DE002B3089000313870188013C308600831278
:1008EE008701880186010317871388130630831644
:1008FE0003138100823083128100A0308B00803080
:10090E0083169F00EC3083129F001F140730FB00EC
:10091E001730FC006A30FD00FD0B932CFC0B932C62
:10092E00FB0B932C0000C7010230C800D1201A30F7
:10093E00FC00F830FD00FD0BA22CFC0BA22C0000DD
:10094E00C7012C30C8008320C7010C30C80083209B
:10095E00C7010130C8008320C7010630C8008320BC
:02096E0008007F
:1009700083120313A201A301A401A5010130AE005B
:10098000AF01B0012030B100B201B30167244E3095
:10099000FC00EB30FD00FD0BCB2CFC0BCB2CC7017E
:1009A0000130C8008320C7018030C8008320013097
:1009B000C7004830C80083200130C7006530C80038
:1009C00083200130C7006C30C80083200130C7008D
:1009D0006F30C80083209F1402301F05F10071089A
:1009E000003A0319F52C0000EC2C03301E05B20070
:1009F000B3010030B3050030B3003208F100F0015C
:100A000083161E087007F20071080318013EF300F8
:100A100072088312B2007308B30080307306F000CE
:100A200080307002031D162D0030720203181A2D3B
:100A3000B201B3018030033AF00080303306700217
:100A4000031D242D3208FF3C03182A2DFF30B2006D
:100A50000330B30005192C2D85182E2D851A302D45
:100A60000518322D8519342DAE012E08F000F10144
:100A7000F00DF10D7010B630F00707300318013E8D
:100A8000F1077008A6007108A7009A228A110A12BD
:100A9000F200A60A0319A70A9A228A110A12F30081
:100AA00080303306F000803073067002031D5A2D2B
:100AB0007208320203185E2DAE0A352D2E08F000A2
:100AC000F101F00DF10D70107030F00707300318D0
:100AD000013EF1077008A6007108A7009A228A114A
:100AE0000A12F000A60A0319A70A9A228A110A120A
:100AF000F1006430F4000030F50056237008AA00BD
:100B00007108AB000030AB1BFF30AC00AD002E080D
:100B1000013C0318F52D22302E020318F52D2E0866
:100B2000F000F101F00DF10D7010B630F007073054
:100B30000318013EF1077008A6007108A7009A2269
:100B40008A110A12B400A60A0319A70A9A228A1166
:100B50000A12B50034083202F0003508031C013EC9
:100B60003302F100F430F4000130F5005623013077
:100B70002E02F500F601031CF6037508F200760854
:100B8000F300F20DF30D7210B630F20707300318C0
:100B9000013EF3077208A6007308A7009A228A1183
:100BA0000A12F200A60A0319A70A9A228A110A1247
:100BB000F30034087202F4003508031C013E73028E
:100BC000F50020220030F11BFF30F200F300700826
:100BD000AA027108031C710FAB027208031C720F8A
:100BE000AC027308031C730FAD022E08223A031DDA
:100BF0005F2E2E08F000F101F00DF10D7010B630EF
:100C0000F00707300318013EF1077008A6007108CD
:100C1000A7009A228A110A12B400A60A0319A70A89
:100C20009A228A110A12B50034083202F0003508FF
:100C3000031C013E3302F100A030F4000F30F50038
:100C4000562301302E02F500F601031CF603750849
:100C5000F2007608F300F20DF30D7210B630F207D1
:100C600007300318013EF3077208A6007308A700B7
:100C70009A228A110A12F200A60A0319A70A9A22D6
:100C80008A110A12F30034087202F4003508031CBA
:100C9000013E7302F50020220030F11BFF30F2000C
:100CA000F3007008AA027108031C710FAB027208EE
:100CB000031C720FAC027308031C730FAD022E08E5
:100CC000013A031DC92E2E08F000F101F00DF10DBF
:100CD0007010B630F00707300318013EF1077008B6
:100CE000A6007108A7009A228A110A12B400A60A67
:100CF0000319A70A9A228A110A12B500340832028F
:100D0000F0003508031C013E3302F100DC30F40032
:100D10000530F500562301302E02F500F601031CC4
:100D2000F6037508F2007608F300F20DF30D721069
:100D3000B630F20707300318013EF3077208A60029
:100D40007308A7009A228A110A12F200A60A031950
:100D5000A70A9A228A110A12F30034087202F400D8
:100D60003508031C013E7302F50020220030F11B00
:100D7000FF30F200F3007008AA027108031C710F23
:100D8000AB027208031C720FAC027308031C730FD2
:100D9000AD022E08003A031DD42E9C30AA00E63086
:100DA000AB00FF30AC00AD0080302D06F00080308D
:100DB0007002031DE52E00302C02031DE52E0030CD
:100DC0002B02031DE52E00302A020318032F2D30BD
:100DD000B100F001F101F201F3012A08F0022B0841
:100DE000031C2B0FF1022C08031C2C0FF2022D0800
:100DF000031C2D0FF3027008AA007108AB007208E3
:100E0000AC007308AD000A30F400F501F601F701FB
:100E10002A08F0002B08F1002C08F2002D08F3003E
:100E2000A1227808F0007908F1007A08F2007B0826
:100E3000F3008030F400803073067402031D2A2F03
:100E40007208003C031D2A2F7108003C031D2A2F45
:100E50007008053C0318432F0A30F400F501F60131
:100E6000F7012A08F0002B08F1002C08F2002D08E9
:100E7000F300A1227008013EAF0000300318013ECC
:100E80007107B000552F0A30F400F501F601F701A3
:100E90002A08F0002B08F1002C08F2002D08F300BE
:100EA000A1227008AF007108B0002F08B60030080A
:100EB000B7003108B8002508B9002308BA00240893
:100EC000BB0081230530FB000F30FC00F130FD003A
:100ED000FD0B682FFC0B682FFB0B682FEB2C6F2F83
:100EE000BF34FF34CE34FF34D334FF34D834FF342E
:100EF000DD34FF34E234FF34E734FF34EC34FF34C4
:100F0000F134FF34F634FF34FB34FF340034003462
:100F1000053400340A3400340F34003414340034FF
:100F2000193400341E34003423340034283400349F
:100F30002D34003432340034373400343C3400343F
:100F400041340034463400344B34003450340034DF
:100F5000553400345A3400345F340034643400347F
:0C0F6000693400346E34003496340034E0
:100F6C00FF340334E2340334D8340334CC34033444
:100F7C00BE340334AC340334963403347C3403343D
:100F8C005F3403343D34033417340334ED3402340A
:100F9C00C1340234923402346134023430340234B9
:100FAC0000340234D1340134A434013479340134A2
:100FBC00513401342D3401340C340134EE3400340A
:100FCC00D3340034BB340034A534003492340034B0
:100FDC008234003473340034663400345B340034AF
:0C0FEC0051340034483400340034003428
:04400E00F22C000789
:00000001FF
