:040000008A15002835
:10000800FF00030E8301BF000A08BE008A017008C2
:10001800A100B90A3908083A031D1428B901B70A1A
:1000280027080319282837083C3A031D1D28B7015B
:10003800B80A38083C3A031D2328B801A60A26083E
:10004800183A031D2828A6018C010B308F00DC30DC
:100058008E00C0308B00013083168C00831221087B
:10006800F0003E088A003F0E8300FF0E7F0E090055
:10007800FB09FA09F909F809F80A0319F90A031931
:08008800FA0A0319FB0A080043
:10009000710DF80DF90D7408F8027508031C750F41
:1000A000F902F00DF10D0F30FC00710DF80DF90D96
:1000B0007408701C6128F8027508031C750FF9029A
:1000C0006628F80775080318750FF907F00DF10D8C
:1000D000FC0B5528701872287408F8077508031867
:0800E000750FF907000008008C
:1000E8007408F8027508031C750FF9027608031CDA
:1000F800760FFA027708031C770FFB02F30D07301F
:10010800FC00730DF80DF90DFA0DFB0D7408731C46
:100118009B28F8027508031C750FF9027608031C62
:10012800760FFA027708031C770FFB02A828F80756
:1001380075080318750FF90776080318760FFA077C
:1001480077080318770FFB07F30DFC0B8528720D52
:10015800F80DF90DFA0DFB0D7408731CC128F8028F
:100168007508031C750FF9027608031C760FFA024E
:100178007708031C770FFB02CE28F80775080318C9
:10018800750FF90776080318760FFA07770803182A
:10019800770FFB07F20D0730FC00720DF80DF90D13
:1001A800FA0DFB0D7408721CE728F8027508031C89
:1001B800750FF9027608031C760FFA027708031CFC
:1001C800770FFB02F428F80775080318750FF9076D
:1001D80076080318760FFA0777080318770FFB07D6
:1001E800F20DFC0BD128710DF80DF90DFA0DFB0D70
:1001F8007408721C0D29F8027508031C750FF902A2
:100208007608031C760FFA027708031C770FFB02A7
:100218001A29F80775080318750FF90776080318DF
:10022800760FFA0777080318770FFB07F10D0730E9
:10023800FC00710DF80DF90DFA0DFB0D7408711C19
:100248003329F8027508031C750FF9027608031C98
:10025800760FFA027708031C770FFB024029F8078C
:1002680075080318750FF90776080318760FFA074B
:1002780077080318770FFB07F10DFC0B1D29700D8C
:10028800F80DF90DFA0DFB0D7408711C5929F802C7
:100298007508031C750FF9027608031C760FFA021D
:1002A8007708031C770FFB026629F80775080318FF
:1002B800750FF90776080318760FFA0777080318F9
:1002C800770FFB07F00D0730FC00700DF80DF90DE6
:1002D800FA0DFB0D7408701C7F29F8027508031CC1
:1002E800750FF9027608031C760FFA027708031CCB
:1002F800770FFB028C29F80775080318750FF907A3
:1003080076080318760FFA0777080318770FFB07A4
:10031800F00DFC0B692970189F297408F8077508F7
:100328000318750FF90776080318760FFA07770888
:080338000318770FFB07080012
:10034000831203137408003A031DBB297508003A91
:10035000031DBB297608003A031DBB297708003A24
:10036000031DBB29FF30F000FF30F100FF30F20029
:100370007F30F300542A83120313FC01F71BFC0A9D
:10038000FD01FB01FA01F901F8017308720471041F
:10039000700403194F2A73087706A000A01BFD09FB
:1003A000F71FDD29F409F509F609F709F40A03191D
:1003B000F50A0319F60A0319F70AF31FEA29F009E7
:1003C000F109F209F309F00A0319F10A0319F20A13
:1003D0000319F30A73087704A000A01B0B2A7420EA
:1003E000FC1B282AFD1F4F2AF009F109F209F30925
:1003F000F00A0319F10A0319F20A0319F30AF809BA
:10040000F909FA09FB09F80A0319F90A0319FA0AA2
:100410000319FB0A4F2AF71F222AF31B1C2A730811
:10042000FB007208FA007108F9007008F800F30187
:10043000F201F101F001F229F301F201F101F00101
:10044000F00A0034F309F209F109F009FC17EF2969
:10045000F80A0319F90A0319FA0A0319FB0A7408BE
:100460007802031DF22975087902031DF229760826
:100470007A02031DF22977087B02031DF229FB0192
:10048000FA01F901F801F00A0319F10A0319F20A55
:100490000319F30AF31FF229A0012016FF34A0016B
:0A04A0007C1C532A3C20003E08009B
:1004AA0083120313F8010830FC00700DF80D74086C
:1004BA00F8020318622AF8070310F00DFC0B5A2AF7
:0204CA00080028
:1004CC00831203137008F100F0010830FC0071086E
:1004DC00F40C0318752AFC0B6E2AF101003403107E
:1004EC007A2AF40C0318F107F10CF00CFC0B772AA8
:0204FC000800F6
:1004FE00831203137408003A031D8E2A7508003AFE
:10050E00031D8E2AFF30F0007F30F100E72A8312A0
:10051E000313FD01F901F801710870040319003489
:10052E0071087506FA00FA1BFD09FB01F51FA42AD6
:10053E00F409F509F40A0319F50AF11FAB2AF009BB
:10054E00F109F00A0319F10A71087504FA00FA1B91
:10055E00C02A48207B18D32AFD1F0034F009F10968
:10056E00F00A0319F10AF809F909F80A0319F90A48
:10057E000034F51FCF2AF11BCB2A7108F900700841
:10058E00F800F101F001B32AF101F001F00A003494
:10059E00F109F009FB0AB02AF80A0319F90A7408DE
:1005AE007802031DB32A75087902031DB32AF901D7
:1005BE00F801F00A0319F10AF11FB32A0000FF3403
:0205CE00080023
:0E05D000831203133D088A003C0882000800D5
:1005DE0083120313FB01FA01F9018030F800F10CCC
:1005EE00F00C031C032B7408F90775080318750F1C
:1005FE00FA070318FB0A0310F01F0B2B7408FA07F7
:10060E0075080318750FFB07FB0CFA0CF90CF80CA8
:10061E00031CF62A7B08F3007A08F2007908F10031
:06062E007808F00008004E
:1006340083120313C501C601C701C8019F14023008
:100644001F05F1007108003A03192A2B0000212B21
:1006540003301E05C700C8010030C8050030C800BB
:100664004708F100F00183161E087007F2007108B4
:100674000318013EF30072088312C7007308C80010
:1006840080307306F00080307002031D4B2B003065
:10069400720203184F2BC701C8018030033AF000DF
:1006A400803048067002031D592B4708FF3C03188D
:1006B4005F2BFF30C7000330C800C5014508F000B8
:1006C400F101F00DF10D70109C30F00707300318A4
:1006D400013EF1077008BC007108BD00E8228A11D0
:1006E4000A12F200BC0A0319BD0AE8228A110A128E
:1006F400F30080307306F000803048067002031D5A
:10070400852B470872020318892BC50A602B4508FC
:10071400F000F101F00DF10D70105630F0070730C4
:100724000318013EF1077008BC007108BD00E822FF
:100734008A110A12F000BC0A0319BD0AE8228A11C0
:100744000A12F1006430F4000030F500EF22700862
:10075400C1007108C2000030C21BFF30C300C400D6
:100764004508013C0318202C223045020318202C94
:100774004508F000F101F00DF10D70109C30F00708
:1007840007300318013EF1077008BC007108BD0072
:10079400E8228A110A12C900BC0A0319BD0AE82218
:1007A4008A110A12CA0047084902F0004808031CCB
:1007B400013E4A02F100F430F4000130F500EF226A
:1007C40001304502F500F601031CF6037508F2003A
:1007D4007608F300F20DF30D72109C30F207073027
:1007E4000318013EF3077208BC007308BD00E82239
:1007F4008A110A12F200BC0A0319BD0AE8228A11FE
:100804000A12F30072084902F4007308031C013E43
:100814004A02F5007F220030F11BFF30F200F300A2
:100824007008C1027108031C710FC2027208031C14
:10083400720FC3027308031C730FC4024508223AE3
:10084400031D8A2C4508F000F101F00DF10D701024
:100854009C30F00707300318013EF1077008BC0014
:100864007108BD00E8228A110A12C900BC0A0319E2
:10087400BD0AE8228A110A12CA0047084902F00098
:100884004808031C013E4A02F100A030F4000F3076
:10089400F500EF2201304502F500F601031CF603D2
:1008A4007508F2007608F300F20DF30D72109C3017
:1008B400F20707300318013EF3077208BC007308FF
:1008C400BD00E8228A110A12F200BC0A0319BD0A0B
:1008D400E8228A110A12F30072084902F40073082C
:1008E400031C013E4A02F5007F220030F11BFF3059
:1008F400F200F3007008C1027108031C710FC202F8
:100904007208031C720FC3027308031C730FC40222
:100914004508013A031DF42C4508F000F101F00DDF
:10092400F10D70109C30F00707300318013EF107F9
:100934007008BC007108BD00E8228A110A12C900BF
:10094400BC0A0319BD0AE8228A110A12CA00470820
:100954004902F0004808031C013E4A02F100DC3061
:10096400F4000530F500EF2201304502F500F601F0
:10097400031CF6037508F2007608F300F20DF30D7C
:1009840072109C30F20707300318013EF307720817
:10099400BC007308BD00E8228A110A12F200BC0AE6
:1009A4000319BD0AE8228A110A12F30072084902E7
:1009B400F4007308031C013E4A02F5007F22003054
:1009C400F11BFF30F200F3007008C1027108031C30
:1009D400710FC2027208031C720FC3027308031C56
:1009E400730FC4024508003A031DFF2C9C30C1005C
:1009F400E630C200FF30C300C40080304406F0007B
:100A040080307002031D102D00304302031D102D91
:100A140000304202031D102D0030410203182E2D18
:100A24000130C600F001F101F201F3014108F002C6
:100A34004208031C420FF1024308031C430FF20255
:100A44004408031C440FF3027008C1007108C2007B
:100A54007208C3007308C4000A30F400F501F601FB
:100A6400F7014108F0004208F1004308F20044088D
:100A7400F300A0217808F0007908F1007A08F20068
:100A84007B08F3008030F400803073067402031D89
:100A9400552D7208003C031D552D7108003C031DA3
:100AA400552D7008053C03186E2D0A30F400F5012D
:100AB400F601F7014108F0004208F1004308F20092
:100AC4004408F300A0217008013EA300003003187D
:100AD400013E7107A400802D0A30F400F501F601EF
:100AE400F7014108F0004208F1004308F20044080D
:100AF400F300A0217008A3007108A4004608A20016
:020B04000800E7
:100B06000A3083120313F4004108F00055227008DE
:100B1600C6000A30F4004108F00055227808F000BB
:100B26007008C7000A30F4004208F0005522700829
:100B3600C8000A30F4004208F00055227808F00098
:100B46007008C900003044190130CB000030C418C9
:100B56000130CA0086014508013A031DBD2D46082D
:100B6600283E84000008F0004A08F4006622700857
:100B76008800C22D4608283E8400000888000130FF
:100B860086001530FC00C630FD00FD0BC82DFC0BA1
:100B9600C82D000086014508003A031DD92D4708D7
:100BA600283E84004B0800048800ED2D4508013AD4
:100BB600031DE82D4708283E84000008F0004A0877
:100BC600F400662270088800ED2D4708283E840050
:100BD60000088800023086001530FC00C630FD0093
:100BE600FD0BF32DFC0BF32D000086014508023AA0
:100BF600031D082E4808283E84000008F0004A0815
:100C0600F4006622700888000D2E4808283E8400ED
:100C160000088800043086001530FC00C630FD0050
:100C2600FD0B132EFC0B132E000086014508023A1D
:100C3600031D282E4908283E84000008F0004A08B3
:100C4600F4006622700888002D2E4908283E84008C
:100C560000088800083086001530FC00C630FD000C
:0C0C6600FD0B332EFC0B332E00000800A9
:100C720083120313C401C501C601C7014108031D44
:100C8200982E0A30F4000030F5004208F0004308C4
:100C9200F1007F227808F0007908F1007008C7009F
:100CA2000A30F4000030F5004208F0004308F10079
:100CB2007F227008C2007108C3000A30F4000030BD
:100CC200F5007F227808F0007908F1007008C6006C
:100CD2000A30F4000030F5004208F0004308F10049
:100CE2007F227008C2007108C3000A30F40000308D
:100CF200F5007F227808F0007908F1007008C5003D
:100D02000A30F4000030F5004208F0004308F10018
:100D12007F227008C4007008003A031D982E0A3022
:100D2200C4004508003A031D982E0A30C500410848
:100D32000319CF2E0A30F4000030F5004208F0000B
:100D42004308F1007F227808F0007908F10070086A
:100D5200C7000A30F4000030F5004208F0004308F2
:100D6200F1007F227008C2007108C3000A30F4004B
:100D72000030F5007F227808F0007908F100700851
:100D8200C6000A30F4000030F5004208F0004308C3
:100D9200F1007F227008C5000B30C40086014408B0
:100DA200283E840000088800013086001530FC00CF
:100DB200C630FD00FD0BDB2EFC0BDB2E0000860196
:100DC2004508283E8400000888000230860015305D
:100DD200FC00C630FD00FD0BEC2EFC0BEC2E0000DF
:100DE20086014608283E8400013000048800043051
:100DF20086001530FC00C630FD00FD0BFE2EFC0BFC
:100E0200FE2E000086014708283E84000008880064
:100E1200083086001530FC00C630FD00FD0B0F2F98
:080E2200FC0B0F2F000008007B
:100E2A007030831603138F00FF3085000317880183
:100E3A0089018601031388018312880186013530EE
:100E4A0090008C010B308F00DC308E00C0308B009C
:100E5A00013083168C00E030031788000730031333
:100E6A00890080309F00D43083129F001F140730FE
:100E7A00FB001730FC006A30FD00FD0B422FFC0B13
:0A0E8A00422FFB0B422F000008006E
:100E9400E8228A110A128000840ABC0A0319BD0AD6
:080EA400F003031D4A2F0800B2
:1010000083120313A201A301A401A501A6010130CB
:10101000A700FC30A8006030A900DA30AA00F23046
:10102000AB006630AC00B630AD00BE30AE00E03094
:10103000AF00FE30B000F630B100B2010230B300B4
:101040006E30B4001C30B500B601B701B801B9016B
:10105000BA01BB01C0018A1115278A154E30FC0068
:10106000EB30FD00FD0B3228FC0B32282508031D58
:1010700068282708031948282608C1003808C20034
:101080003708C3003908C400C5018A1183258A15B1
:101090003B08031958282608C1003808C200370841
:1010A000C3003908C4000130C5008A1183258A15A0
:1010B0003A08031968282608C1003808C200370812
:1010C000C3003908C4000230C5008A1183258A157F
:1010D0002508031984280F30F4004008F0008A1115
:1010E00055228A157808F0007008003A031D7B2805
:1010F0008A111A238A152208C1002308C200240875
:10110000C3008A1139268A1505198B280130BA00C7
:10111000A701BB01A501851892280130BB00A701DA
:10112000BA01A5012708031DA428851AA4288B014C
:101130000130A700BB01BA01B901B7010B308F0024
:10114000DC308E00C0308B001930F4004008F00015
:0E1150008A1155228A157808F0007008003ABE
:100EAC00BF34FF34CE34FF34D334FF34D834FF3462
:100EBC00DD34FF34E234FF34E734FF34EC34FF34F8
:100ECC00F134FF34F634FF34FB34FF340034003497
:100EDC00053400340A3400340F3400341434003434
:100EEC00193400341E3400342334003428340034D4
:100EFC002D34003432340034373400343C34003474
:100F0C0041340034463400344B3400345034003413
:100F1C00553400345A3400345F34003464340034B3
:0C0F2C00693400346E3400349634003414
:100F3800003400341E34003428340034343400348F
:100F480042340034543400346A3400348434003475
:100F5800A1340034C3340034E93400341334013488
:100F6800403401346E3401349F340134D0340134B8
:100F7800003402342F3402345C34023487340234AF
:100F8800AF340234D3340234F53402341234033427
:100F98002D340334453403345B3403346E34033462
:100FA8007E3403348D3403349A340334A534033443
:0C0FB800AF340334B8340334FF34033486
:04400E00F22F000786
:00000001FF
