:020000040000FA
:100000000C9462000C948A000C948A000C948A0070
:100010000C948A000C948A000C948A000C948A0038
:100020000C948A000C948A000C948A000C948A0028
:100030000C948A000C948A000C948A000C948A0018
:100040000C94EF030C948A000C945F040C94390414
:100050000C948A000C948A000C948A000C948A00F8
:100060000C948A000C948A000000000023002600F3
:10007000290000000000240027002A0000000000E2
:10008000250028002B0004040404040404040202D4
:100090000202020203030303030301020408102007
:1000A0004080010204081020010204081020000012
:1000B0000008000201000003040700000000000027
:1000C0000000910411241FBECFEFD8E0DEBFCDBFEA
:1000D00011E0A0E0B1E0E6ECF1E102C005900D9284
:1000E000A238B107D9F722E0A2E8B1E001C01D9221
:1000F000A038B207E1F710E0C2E6D0E004C02197D3
:10010000FE010E94C708C136D107C9F70E94370512
:100110000C94E1080C940000833081F028F48130C5
:1001200099F08230A9F008958730A9F08830C9F09D
:100130008430B1F4809180008F7D03C08091800075
:100140008F7780938000089584B58F7784BD08955C
:1001500084B58F7DFBCF8091B0008F778093B00006
:1001600008958091B0008F7DF9CF1F93CF93DF93D7
:10017000282F30E0F901E255FF4F8491F901E6564E
:10018000FF4FD491F901EA57FF4FC491CC23A9F056
:10019000162F81110E948C00EC2FF0E0EE0FFF1F54
:1001A000E458FF4FA591B4918FB7F894EC911111D9
:1001B00008C0D095DE23DC938FBFDF91CF911F91D4
:1001C0000895DE2BF8CFCF93DF9390E0FC01E65645
:1001D000FF4F24918A579F4FFC0184918823D1F0CF
:1001E00090E0880F991FFC01EE58FF4FA591B49144
:1001F000FC01E458FF4FC591D49161110EC09FB727
:10020000F8948C91E22FE0958E238C932881E22341
:10021000E8839FBFDF91CF9108958FB7F894EC9159
:10022000E22BEC938FBFF6CF3FB7F8948091870114
:1002300090918801A0918901B0918A0126B5A89B6F
:1002400005C02F3F19F00196A11DB11D3FBFBA2F68
:10025000A92F982F8827BC01CD01620F711D811D28
:10026000911D42E0660F771F881F991F4A95D1F7AD
:1002700008958F929F92AF92BF92CF92DF92EF92AA
:10028000FF924B015C010E9414016B017C010E94F2
:1002900014016C197D098E099F09683E7340810520
:1002A0009105A8F321E0821A9108A108B10888EE0F
:1002B000C80E83E0D81EE11CF11C81149104A10436
:1002C000B10429F7FF90EF90DF90CF90BF90AF90EF
:1002D0009F908F900895AF92BF92CF92DF92EF924E
:1002E000FF920F931F93CF93DF936C017B018B01E0
:1002F000040F151FEB015E01AE18BF08C017D10730
:1003000059F06991D601ED91FC910190F081E02DB9
:10031000C6010995892B79F7C501DF91CF911F910E
:100320000F91FF90EF90DF90CF90BF90AF90089526
:10033000FC01538D448D252F30E0842F90E0821BEB
:10034000930B541710F0CF96089501970895FC0170
:10035000918D828D981761F0A28DAE0FBF2FB11DC8
:100360005D968C91928D9F5F9F73928F90E0089520
:100370008FEF9FEF0895FC01918D828D981731F0DA
:10038000828DE80FF11D858D90E008958FEF9FEF2E
:100390000895FC01918D228D892F90E0805C9F4F04
:1003A000821B91098F73992708958BE891E00E9431
:1003B000C90121E0892B09F420E0822F089580E013
:1003C00090E0892B29F00E94D50181110C94000046
:1003D0000895FC01A48DA80FB92FB11DA35ABF4FDA
:1003E0002C91848D90E001968F739927848FA68934
:1003F000B7892C93A089B1898C91837080648C9388
:10040000938D848D981306C00288F389E02D808136
:100410008F7D80830895EF92FF920F931F93CF9368
:10042000DF93EC0181E0888F9B8D8C8D98131AC02F
:10043000E889F989808185FF15C09FB7F894EE8916
:10044000FF896083E889F989808183708064808373
:100450009FBF81E090E0DF91CF911F910F91FF90BE
:10046000EF900895F62E0B8D10E00F5F1F4F0F7366
:100470001127E02E8C8D8E110CC00FB607FCFACF21
:10048000E889F989808185FFF5CFCE010E94E901D5
:10049000F1CFEB8DEC0FFD2FF11DE35AFF4FF082F2
:1004A0009FB7F8940B8FEA89FB8980818062CFCF58
:1004B000CF93DF93EC01888D8823B9F0AA89BB899B
:1004C000E889F9898C9185FD03C0808186FD0DC086
:1004D0000FB607FCF7CF8C9185FFF2CF808185FFA7
:1004E000EDCFCE010E94E901E9CFDF91CF910895D0
:1004F000CF92DF92EF92FF920F931F93CF93DF93F0
:1005000000D0CDB7DEB769834A83880F991F009169
:100510007E0210917F02000F111FE8E2F2E09F01BE
:10052000285232402017310714F41192F8CF298154
:10053000FC01E85DFD4F21838A81808360E080912A
:100540007C020E94B5001016110604F50150110935
:10055000F801E85DFD4FE080D0907A02C09078020B
:1005600088E0F82E6E2D661F6627661F8C2D0E9470
:10057000B500EE0C61E08D2D0E94B50060E08D2D80
:100580000E94B500FA94F110EDCFDDCF61E08091CB
:100590007C020F900F90DF91CF911F910F91FF90F0
:1005A000EF90DF90CF900C94B50020917E023091B7
:1005B0007F02821793073CF440E0611101C041E0E3
:1005C0006CE00C9478020895EF92FF921F93CF9302
:1005D000DF9320917E0230917F0282179307B4F45B
:1005E000EC0123E0880F991F2A95E1F79C01285C14
:1005F0003D4F790111E0F70111927F0140E0612F39
:10060000CE010E9478021F5F1930A9F7DF91CF91C8
:100610001F91FF90EF90089520917E0230917F020C
:100620008217930774F4FC0123E0EE0FFF1F2A9555
:10063000E1F7E85DFD4FE60FF71F408B6F5F0C940D
:1006400078020895EF92FF920F931F93CF93DF9359
:10065000673008F5E62FF0E0EE5CFC4FC82FD0E0E5
:100660000C94C708B10339035203650378038B0365
:100670009E0368E3E62E61E0F62E10E000E0F7014D
:1006800041917F01B801CE010E940C030F5F1F4F03
:1006900008301105A1F7DF91CF911F910F91FF90C5
:1006A000EF90089550E3E52E51E0F52E10E000E0C4
:1006B000F70141917F01B801CE010E940C030F5F49
:1006C0001F4F08301105A1F7E6CF48E2E42E41E0C4
:1006D000F42E10E000E0F70141917F01B801CE0156
:1006E0000E940C030F5F1F4F08301105A1F7D3CFF5
:1006F00030E2E32E31E0F32E10E000E0F70141910B
:100700007F01B801CE010E940C030F5F1F4F08301C
:100710001105A1F7C0CF28E1E22E21E0F22E10E072
:1007200000E0F70141917F01B801CE010E940C0366
:100730000F5F1F4F08301105A1F7ADCF90E1E92EF3
:1007400091E0F92E10E000E0F70141917F01B8013E
:10075000CE010E940C030F5F1F4F08301105A1F757
:100760009ACF88E0E82E81E0F82E10E000E0F70153
:1007700041917F01B801CE010E940C030F5F1F4F12
:1007800008301105A1F787CF20917E0230917F02BA
:1007900082179307BCF4FC0123E0EE0FFF1F2A959C
:1007A000E1F7E60FF71F20E830E002C03595279506
:1007B0004A95E2F7E85DFD4F4089422B408B6F5F21
:1007C0000C947802089520917E0230917F02821766
:1007D000930724F448E06AE00C94780208951F928D
:1007E0000F920FB60F9211242F933F938F939F93E5
:1007F000AF93BF938091830190918401A091850173
:10080000B09186013091820123E0230F2D3758F5F6
:100810000196A11DB11D20938201809383019093C5
:100820008401A0938501B093860180918701909106
:100830008801A0918901B0918A010196A11DB11D85
:100840008093870190938801A0938901B0938A01D6
:10085000BF91AF919F918F913F912F910F900FBEBC
:100860000F901F90189526E8230F0296A11DB11D29
:10087000D2CF1F920F920FB60F9211242F933F9356
:100880004F935F936F937F938F939F93AF93BF9398
:10089000EF93FF938BE891E00E94E901FF91EF91C4
:1008A000BF91AF919F918F917F916F915F914F9188
:1008B0003F912F910F900FBE0F901F9018951F9290
:1008C0000F920FB60F9211242F938F939F93EF9354
:1008D000FF93E0919B01F0919C018081E091A10147
:1008E000F091A20182FD1BC090818091A4018F5FD5
:1008F0008F732091A501821741F0E091A401F0E0EF
:10090000E557FE4F958F8093A401FF91EF919F9142
:100910008F912F910F900FBE0F901F90189580818F
:10092000F4CFCF93DF9310928E0110928D0188EE59
:1009300093E0A0E0B0E080938F0190939001A093AA
:100940009101B093920184E691E090938C018093A1
:100950008B0185EC90E0909398018093970184EC53
:1009600090E090939A018093990180EC90E09093AD
:100970009C0180939B0181EC90E090939E01809379
:100980009D0182EC90E09093A00180939F0186EC02
:1009900090E09093A2018093A1011092A401109283
:1009A000A5011092A6011092A701CAE0D0E0D09351
:1009B0007902C093780288E090E090937B02809364
:1009C0007A0289E090E090937D0280937C0284E03B
:1009D00090E090937F0280937E0261E08AE00E9423
:1009E000E30061E080917A020E94E30061E080917F
:1009F0007C020E94E30061E080917C020E94B500CD
:100A0000D0937902C0937802E8E3F2E088E792E0BD
:100A100011928E179F07E1F7D0E0C0E080917E022F
:100A200090917F02C817D907FCF440E06FE0CE0137
:100A30000E94780280917E0290917F02C817D907A8
:100A40002CF447E06BE0CE010E94780240E069E0C0
:100A5000CE010E947802CE010E94E40261E0CE0144
:100A60000E94D5022196DACFDF91CF910895789434
:100A700084B5826084BD84B5816084BD85B58260A3
:100A800085BD85B5816085BD80916E008160809354
:100A90006E001092810080918100826080938100BD
:100AA00080918100816080938100809180008160CD
:100AB000809380008091B10084608093B100809128
:100AC000B00081608093B00080917A008460809350
:100AD0007A0080917A00826080937A0080917A0017
:100AE000816080937A0080917A00806880937A0098
:100AF0001092C10060E084E00E94E30060E082E0C8
:100B00000E94E30060E083E00E94E300E0919B012B
:100B1000F0919C0182E08083E0919701F09198012F
:100B20001082E0919901F0919A018FEC80831092EC
:100B3000A301E0919F01F091A00186E08083E09104
:100B40009D01F0919E01808180618083E0919D01F3
:100B5000F0919E01808188608083E0919D01F091F9
:100B60009E01808180688083E0919D01F0919E01CB
:100B700080818F7D80836CED75E080E090E00E9445
:100B800039014CE050E062E771E08BE891E00E94AF
:100B90006B0142E050E06FE771E08BE891E00E946A
:100BA0006B0160E090E080E00E94D50290E080E080
:100BB0000E94E30390E080E00E94E40260E081E0B4
:100BC00090E00E94D50281E090E00E94E30381E082
:100BD00090E00E94E40260E082E090E00E94D50292
:100BE00082E090E00E94E30382E090E00E94E40251
:100BF00060E083E090E00E94D50283E090E00E94F4
:100C0000E30383E090E00E94E402D0E0C0E010E063
:100C100000E0A801BE0183E090E00E94C40364E10B
:100C200070E080E090E00E9439010F5F1F4F0830B4
:100C3000110579F72196C830D10549F783E090E096
:100C40000E94E402D0E0C0E010E000E0A801BE0194
:100C500082E090E00E94C40364E170E080E090E0F4
:100C60000E9439010F5F1F4F0830110579F7219657
:100C7000C830D10549F782E090E00E94E402D0E05C
:100C8000C0E010E000E0A801BE0181E090E00E9419
:100C9000C40364E170E080E090E00E9439010F5FDE
:100CA0001F4F0830110579F72196C830D10549F753
:100CB00081E090E00E94E402D0E0C0E010E000E0BB
:100CC000A801BE0190E080E00E94C40364E170E0EE
:100CD00080E090E00E9439010F5F1F4F083011053E
:100CE00079F72196C830D10549F790E080E00E945D
:100CF000E40208E511E0D0E0C0E0F80141918F0185
:100D0000BE0183E090E00E940C032196C830D1051B
:100D1000A1F700E511E0D0E0C0E0F80141918F01BA
:100D2000BE0182E090E00E940C032196C830D105FC
:100D3000A1F708E411E0D0E0C0E0F80141918F0193
:100D4000BE0181E090E00E940C032196C830D105DD
:100D5000A1F700E411E0D0E0C0E0F80141918F017B
:100D6000BE0190E080E00E940C032196C830D105BE
:100D7000A1F768EB7BE080E090E00E94390183E01E
:100D800090E00E94E40282E090E00E94E40281E0B0
:100D900090E00E94E40290E080E00E94E40220E4FF
:100DA000822E02EB10E03EE9E32E30E0F32E4AE81B
:100DB000C42E40E0D42EC6E0D0E050E0A52E50E096
:100DC000B52E80927C0080917A00806480937A00B6
:100DD00080917A0086FDFCCF609178007091790057
:100DE000072E000C880B990B611571058105910583
:100DF00011F00E94470864E873E080E090E00E94F0
:100E0000390160E080E00E942203F8018491F7013B
:100E10009490F6017490772071F081110E948C00FB
:100E2000E72DF0E0EE0FFF1FE859FF4FA591B491B9
:100E30008C91982251F790E080E00E94E40281E3D7
:100E4000982E0E949C07BE010E94B30861E0680FC3
:100E500083E00E94220360E570E080E090E00E9461
:100E600039019A949110EDCF0E949C07BE010E9417
:100E7000B30861E0680F83E00E94220360ED77E031
:100E800080E090E00E943901A114B10409F499CFE7
:100E90000E94D501882309F494CF0E94000091CFCD
:100EA0008F929F92AF92BF92CF92DF92EF92FF927A
:100EB000CF93DF93EC01688179818A819B816115F1
:100EC00071058105910521F464E279ED8BE597E0E8
:100ED0002DE133EF41E050E00E94500849015A01F2
:100EE0009B01AC01A7EAB1E40E946F086B017C0191
:100EF000ACEEB4EFA50194010E947D08DC01CB01AA
:100F00008C0D9D1DAE1DBF1DB7FF03C00197A1092C
:100F1000B04888839983AA83BB839F77DF91CF9161
:100F2000FF90EF90DF90CF90BF90AF909F908F9009
:100F300008950E945007089580E091E00E945007B4
:100F40000895B0E0A0E08093000190930101A09388
:100F50000201B093030108958F929F92AF92BF92C6
:100F6000CF92DF92EF92FF92CF93DF93EC016881F3
:100F700079818A819B81611571058105910521F433
:100F800064E279ED8BE597E02DE133EF41E050E04D
:100F90000E94500849015A019B01AC01A7EAB1E443
:100FA0000E946F086B017C01ACEEB4EFA5019401C7
:100FB0000E947D08C60ED71EE81EF91EF7FE06C069
:100FC00081E0C81AD108E10880E8F80AC882D9820D
:100FD000EA82FB82C701B6019F77DF91CF91FF9034
:100FE000EF90DF90CF90BF90AF909F908F9008953B
:100FF0008F929F92AF92BF92CF92DF92EF92FF9229
:1010000060910401709105018091060190910701A2
:10101000611571058105910521F464E279ED8BE597
:1010200097E02DE133EF41E050E00E945008490184
:101030005A019B01AC01A7EAB1E40E946F086B0161
:101040007C01ACEEB4EFA50194010E947D08C60EB0
:10105000D71EE81EF91EF7FE06C081E0C81AD108A7
:10106000E10880E8F80AC0920401D0920501E092FC
:101070000601F0920701C701B6019F77FF90EF903C
:10108000DF90CF90BF90AF909F908F900895609326
:101090000401709305018093060190930701089560
:1010A000052E97FB1EF400940E94670857FD07D099
:1010B0000E94820807FC03D04EF40C9467085095F8
:1010C0004095309521953F4F4F4F5F4F0895909534
:1010D0008095709561957F4F8F4F9F4F08950E9427
:1010E000A408A59F900DB49F900DA49F800D911D05
:1010F00011240895B7FF0C946F080E946F08821B9B
:10110000930B0895A1E21A2EAA1BBB1BFD010DC073
:10111000AA1FBB1FEE1FFF1FA217B307E407F507A7
:1011200020F0A21BB30BE40BF50B661F771F881F83
:10113000991F1A9469F760957095809590959B0119
:10114000AC01BD01CF010895A29FB001B39FC001C2
:10115000A39F700D811D1124911DB29F700D811DE3
:101160001124911D089597FB072E16F4009407D0C3
:1011700077FD09D00E94CD0807FC05D03EF490957C
:1011800081959F4F0895709561957F4F0895EE0F5B
:10119000FF1F0590F491E02D0994AA1BBB1B51E1A0
:1011A00007C0AA1FBB1FA617B70710F0A61BB70BD7
:1011B000881F991F5A95A9F780959095BC01CD017C
:1011C0000895F894FFCF01000000010000003C42A8
:1011D00081A59981423C708880F088887000F880F1
:1011E000F0080888700010305090F81010007088D7
:1011F000087008887000708808102040F8001030CF
:1012000050901010100078848484848478004040CA
:10121000404040407E007E40407C40407E00424254
:10122000427E42424200000000000B026B01980126
:101230005802C901A701BB017374617274696E67BA
:08124000206E6F77000D0A001B
:107800000C94343C0C94513C0C94513C0C94513CE1
:107810000C94513C0C94513C0C94513C0C94513CB4
:107820000C94513C0C94513C0C94513C0C94513CA4
:107830000C94513C0C94513C0C94513C0C94513C94
:107840000C94513C0C94513C0C94513C0C94513C84
:107850000C94513C0C94513C0C94513C0C94513C74
:107860000C94513C0C94513C11241FBECFEFD8E036
:10787000DEBFCDBF11E0A0E0B1E0ECE9FFE702C060
:1078800005900D92A230B107D9F712E0A2E0B1E065
:1078900001C01D92AD30B107E1F70E942D3D0C945F
:1078A000CC3F0C94003C982F959595959595959582
:1078B000905D8F708A307CF0282F295A8091C0000B
:1078C00085FFFCCF9093C6008091C00085FFFCCF60
:1078D0002093C6000895282F205DF0CF982F809127
:1078E000C00085FFFCCF9093C6000895EF92FF92F1
:1078F0000F931F93EE24FF2487018091C00087FD22
:1079000017C00894E11CF11C011D111D81E4E8164B
:1079100082E4F8068FE0080780E0180770F3E09132
:107920000401F091050109958091C00087FFE9CF1E
:107930008091C6001F910F91FF90EF9008950E94D3
:10794000763C982F8091C00085FFFCCF9093C600B5
:1079500091362CF490330CF09053892F089597555D
:10796000892F08951F930E949F3C182F0E949F3CCF
:107970001295107F810F1F9108951F93182F882350
:1079800021F00E94763C1150E1F71F9108951F935A
:10799000182F0E94763C803249F0809103018F5F5E
:1079A000809303018530C1F01F9108958091C0003C
:1079B00085FFFCCF84E18093C6008091C00085FFE5
:1079C000FCCF1093C6008091C00085FFFCCF80E102
:1079D0008093C6001F910895E0910401F091050184
:1079E00009951F9108950E94763C803241F0809164
:1079F00003018F5F80930301853081F008958091AA
:107A0000C00085FFFCCF84E18093C6008091C00058
:107A100085FFFCCF80E18093C6000895E0910401CA
:107A2000F09105010995089540E951E08823A1F0FE
:107A30002D9A28EE33E0FA013197F1F721503040CA
:107A4000D1F72D9828EE33E0FA013197F1F7215064
:107A50003040D1F7815061F708953F924F925F9285
:107A60006F927F928F929F92AF92BF92CF92DF924E
:107A7000EF92FF920F931F93CF93DF93000080E16B
:107A80008093C4001092C50088E18093C10086E015
:107A90008093C2005098589A259A81E00E94143D24
:107AA00024E1F22E9EE1E92E85E9D82E0FE0C02ECA
:107AB00010E1B12EAA24A394B1E49B2EA6E58A2E50
:107AC000F2E57F2EE0E26E2E79E4572E63E5462E36
:107AD00050E5352E0E94763C8033B1F18133B9F107
:107AE000803409F46FC0813409F476C0823409F41B
:107AF00085C0853409F488C0803531F1823521F1A3
:107B0000813511F1853509F485C0863509F48DC0BC
:107B1000843609F496C0843709F403C1853709F423
:107B200072C1863709F466C0809103018F5F80932C
:107B30000301853079F6E0910401F0910501099582
:107B40000E94763C803351F60E94F33CC3CF0E94E2
:107B5000763C803249F78091C00085FFFCCFF092DF
:107B6000C6008091C00085FFFCCF9092C600809136
:107B7000C00085FFFCCF8092C6008091C00085FFC9
:107B8000FCCF7092C6008091C00085FFFCCF609250
:107B9000C6008091C00085FFFCCF5092C600809146
:107BA000C00085FFFCCF4092C6008091C00085FFD9
:107BB000FCCF3092C6008091C00085FFFCCFB09210
:107BC000C60088CF0E94763C863808F4BDCF0E945C
:107BD000763C0E94F33C7ECF0E94763C803809F4CC
:107BE0009CC0813809F40BC1823809F43CC1883942
:107BF00009F48FC080E00E94C73C6CCF84E10E94F2
:107C0000BD3C0E94F33C66CF85E00E94BD3C0E94D3
:107C1000F33C60CF0E94763C809306010E94763C44
:107C2000809307010E94F33C55CF0E94763C80333D
:107C300009F41DC183E00E94BD3C80E00E94C73C66
:107C400049CF0E94763C809309020E94763C809343
:107C5000080280910C028E7F80930C020E94763C79
:107C6000853409F415C18091080290910902892B8D
:107C700089F000E010E00E94763CF801E85FFE4FDA
:107C800080830F5F1F4F80910802909109020817AF
:107C9000190788F30E94763C803209F045CF809125
:107CA0000C0280FF01C16091060170910701660F0F
:107CB000771F7093070160930601A0910802B091AD
:107CC00009021097C9F0E8E0F1E09B01AD014E0F09
:107CD0005F1FF999FECF32BD21BD819180BDFA9A17
:107CE000F99A2F5F3F4FE417F50799F76A0F7B1F4B
:107CF00070930701609306018091C00085FFFCCF5F
:107D0000F092C6008091C00085FFFCCFB092C60003
:107D1000E1CE83E00E94C73CDDCE82E00E94C73CFA
:107D2000D9CE0E94763C809309020E94763C8093D3
:107D300008028091060190910701880F991F909386
:107D40000701809306010E94763C853409F4A6C0A1
:107D500080910C028E7F80930C020E94763C8032D0
:107D600009F0B8CE8091C00085FFFCCFF092C6002C
:107D7000609108027091090261157105B9F140E046
:107D800050E080910C02A82FA170B82FB27011C0E2
:107D9000BB2309F45CC0E0910601F0910701319624
:107DA000F0930701E09306014F5F5F4F46175707B7
:107DB000E8F4AA2369F3F999FECF209106013091E6
:107DC000070132BD21BDF89A90B58091C00085FFB2
:107DD000FCCF9093C6002F5F3F4F30930701209355
:107DE00006014F5F5F4F4617570718F38091C00099
:107DF00085FDE5CE8091C00085FFF8CFE0CE81E023
:107E00000E94C73C67CE0E94763C803209F08CCE3F
:107E10008091C00085FFFCCFF092C6008091C00029
:107E200085FFFCCFE092C6008091C00085FFFCCFAB
:107E3000D092C6008091C00085FFFCCFC092C600E2
:107E40008091C00085FFFCCFB092C60043CEE09188
:107E50000601F091070194918091C00085FFFCCF4D
:107E60009093C6009CCF80E10E94C73C33CE0E9415
:107E7000763C0E94763C182F0E94763C112309F430
:107E800083C0113009F484C08FE00E94C73C22CE29
:107E900080910C02816080930C02E5CE80910C02EF
:107EA000816080930C0259CF809107018823880F4D
:107EB000880B8A2180930B02809106019091070123
:107EC000880F991F90930701809306018091080203
:107ED00080FF09C080910802909109020196909359
:107EE000090280930802F894F999FECF1127E091D6
:107EF0000601F0910701C8E0D1E08091080290915D
:107F00000902103091F40091570001700130D9F34B
:107F100003E000935700E89500915700017001308D
:107F2000D9F301E100935700E89509901990009169
:107F3000570001700130D9F301E000935700E89534
:107F40001395103498F011270091570001700130FB
:107F5000D9F305E000935700E895009157000170B0
:107F60000130D9F301E100935700E895329602976A
:107F700009F0C7CF103011F00296E5CF112480919F
:107F8000C00085FFB9CEBCCE8EE10E94C73CA2CD19
:0E7F900085E90E94C73C9ECDF894FFCF80008B
:00000001FF
